:020000040800F2
:1000000000280020D1170008351500083B1500080E
:1000100041150008471500084D15000800000000B4
:100020000000000000000000000000005315000860
:100030005F150008000000006B1500087715000828
:1000400019180008191800081918000819180008CC
:1000500019180008191800081918000819180008BC
:1000600019180008191800081918000819180008AC
:10007000191800081918000819180008191800089C
:10008000191800081918000819180008191800088C
:10009000191800081918000819180008191800087C
:1000A000191800081918000819180008191800086C
:1000B000851500081918000800000000191800082C
:1000C00019180008000000000000000019180008BE
:1000D00000000000191800081918000800000000AE
:1000E0001918000819180008191800080000000065
:1000F0000000000000000000000000000000000000
:0C01000000000000000000005FF808F1A3
:10010C0010B5054C237833B9044B13B10448AFF345
:10011C0000800123237010BD480000200000000067
:10012C00602E000808B5034B1BB103490348AFF31D
:10013C00008008BD000000004C000020602E00086C
:10014C0080B400AF064B1B68012B04D1044B00227A
:10015C001A60012300E000231846BD4680BC70479E
:10016C006400002080B400AF064B1B68012B04D147
:10017C00044B00221A60012300E000231846BD4600
:10018C0080BC70476800002080B400AF064B1B6831
:10019C00012B04D1044B00221A60012300E0002340
:1001AC001846BD4680BC70476C00002080B500AF7F
:1001BC00234B1B68234A1360234B1B68204A136094
:1001CC004FF40061214801F00DFE03461A461E4B08
:1001DC001A601C4B1A681A4B1B689A422DD1184B8B
:1001EC001A68194B1B689A4227D1194B1A68164B7F
:1001FC001B689A420ED0144B1B68154A1360124BA5
:10020C001B68002B19D1134B01221A60124B64226C
:10021C001A6012E0104B1B68013B0F4A13600E4B27
:10022C001B68002B09DC084B1B68002B02D1094B07
:10023C0001221A60084B64221A6000BF80BD00BF07
:10024C0004000020000000200800002000080140ED
:10025C000C000020640000203000002080B500AFAE
:10026C00234B1B68234A1360234B1B68204A1360E3
:10027C004FF48051214801F0B5FD03461A461E4B40
:10028C001A601C4B1A681A4B1B689A422DD1184BDA
:10029C001A68194B1B689A4227D1194B1A68164BCE
:1002AC001B689A420ED0144B1B68154A1360124BF4
:1002BC001B68002B19D1134B01221A60124B6422BC
:1002CC001A6012E0104B1B68013B0F4A13600E4B77
:1002DC001B68002B09D1084B1B68002B02D1094B62
:1002EC0001221A60084B64221A6000BF80BD00BF57
:1002FC00140000201000002018000020000801400D
:10030C001C000020680000203400002080B500AFE5
:10031C00234B1B68234A1360234B1B68204A136032
:10032C004FF40051214801F05DFD03461A461E4B67
:10033C001A601C4B1A681A4B1B689A422DD1184B29
:10034C001A68194B1B689A4227D1194B1A68164B1D
:10035C001B689A420ED0144B1B68154A1360124B43
:10036C001B68002B19D1134B01221A60124B64220B
:10037C001A6012E0104B1B68013B0F4A13600E4BC6
:10038C001B68002B09D1084B1B68002B02D1094BB1
:10039C0001221A60084B64221A6000BF80BD00BFA6
:1003AC00240000202000002028000020000801402C
:1003BC002C0000206C0000203800002080B582B09A
:1003CC0000AF78607B68092B00F2808101A252F8A3
:1003DC0023F000BF09040008510400089904000828
:1003EC00E10400082905000871050008B90500089A
:1003FC0001060008490600089106000800220121A8
:10040C00C64801F006FD00220221C44801F001FD9E
:10041C0000220421C14801F0FCFC00220821BF4845
:10042C0001F0F7FC00221021BC4801F0F2FC002284
:10043C002021BA4801F0EDFC01224021B74801F01F
:10044C00E8FC67E101220121B44801F0E2FC002242
:10045C000221B24801F0DDFC00220421AF4801F07A
:10046C00D8FC01220821AD4801F0D3FC0122102157
:10047C00AA4801F0CEFC01222021A84801F0C9FCB9
:10048C0001224021A54801F0C4FC43E100220121D6
:10049C00A24801F0BEFC00220221A04801F0B9FCE8
:1004AC00012204219D4801F0B4FC002208219B4844
:1004BC0001F0AFFC00221021984801F0AAFC0122A7
:1004CC002021964801F0A5FC00224021934801F020
:1004DC00A0FC1FE100220121904801F09AFC0022AF
:1004EC0002218E4801F095FC002204218B4801F07A
:1004FC0090FC00220821894801F08BFC012210217C
:10050C00864801F086FC01222021844801F081FC00
:10051C0000224021814801F07CFCFBE001220121FA
:10052C007E4801F076FC002202217C4801F071FC2F
:10053C0000220421794801F06CFC01220821774843
:10054C0001F067FC01221021744801F062FC0022CA
:10055C002021724801F05DFC002240216F4801F01F
:10056C0058FCD7E0002201216C4801F052FC01221A
:10057C0002216A4801F04DFC00220421674801F079
:10058C0048FC00220821654801F043FC012210219F
:10059C00624801F03EFC00222021604801F039FC49
:1005AC00002240215D4801F034FCB3E0002201211F
:1005BC005A4801F02EFC01220221584801F029FC76
:1005CC0000220421554801F024FC00220821534844
:1005DC0001F01FFC00221021504801F01AFC0022EF
:1005EC0020214E4801F015FC002240214B4801F01F
:1005FC0010FC8FE000220121484801F00AFC002287
:10060C000221464801F005FC00220421434801F078
:10061C0000FC01220821414801F0FBFB01221021C2
:10062C003E4801F0F6FB012220213C4801F0F1FB91
:10063C0001224021394801F0ECFB6BE00022012142
:10064C00364801F0E6FB00220221344801F0E1FBC0
:10065C0000220421314801F0DCFB002208212F4844
:10066C0001F0D7FB002210212C4801F0D2FB002214
:10067C0020212A4801F0CDFB00224021274801F01F
:10068C00C8FB47E000220121244801F0C2FB0022F4
:10069C000221224801F0BDFB002204211F4801F079
:1006AC00B8FB002208211D4801F0B3FB01221021E8
:1006BC001A4801F0AEFB00222021184801F0A9FBDA
:1006CC0000224021154801F0A4FB23E00122012166
:1006DC00124801F09EFB01220221104801F099FB07
:1006EC00012204210D4801F094FB012208210B4842
:1006FC0001F08FFB01221021084801F08AFB012236
:10070C002021064801F085FB01224021034801F01D
:10071C0080FB00BF00BF0837BD4680BD000C014008
:10072C0080B582B000AF78607B68032B00F28C80C0
:10073C0001A252F823F000BF5507000895070008E6
:10074C00D50700081508000800224FF480714148B5
:10075C0001F05FFB01224FF400713E4801F059FBA0
:10076C0001224FF480613B4801F053FB01224FF40E
:10077C000061384801F04DFB374A7B6852F8233052
:10078C001846FFF71BFE60E001224FF480713148E0
:10079C0001F03FFB00224FF400712E4801F039FBB1
:1007AC0001224FF480612B4801F033FB01224FF4FE
:1007BC000061284801F02DFB274A7B6852F8233052
:1007CC001846FFF7FBFD40E001224FF480712148F1
:1007DC0001F01FFB01224FF400711E4801F019FBC0
:1007EC0000224FF480611B4801F013FB01224FF4EF
:1007FC000061184801F00DFB174A7B6852F8233052
:10080C001846FFF7DBFD20E001224FF48071114800
:10081C0001F0FFFA01224FF400710E4801F0F9FAD1
:10082C0001224FF480610B4801F0F3FA00224FF4DF
:10083C000061084801F0EDFA074A7B6852F8233052
:10084C001846FFF7BBFD00E000BF00BF0837BD46F0
:10085C0080BD00BF000C01407000002080B500AFCF
:10086C003E4B01221A603D4B1B683D4A53603D4B89
:10087C001B68013B032B67D801A252F823F000BF81
:10088C009D080008B9080008ED08000821090008B7
:10089C0000F054FB334B02221A60334B1B6864226A
:1008AC0002FB03F3184600F06BFD54E000F05CFB18
:1008BC002E4B1B68012B0AD12A4B03221A602C4B9E
:1008CC001B68642202FB03F3184600F059FDFFF786
:1008DC0037FC0346012B39D1224B0C221A6035E030
:1008EC0000F058FB214B1B68012B0AD11D4B042235
:1008FC001A60204B1B68642202FB03F3184600F0BD
:10090C003FFDFFF71DFC0346012B21D1154B0C229B
:10091C001A601DE000F054FB144B1B68012B0AD12C
:10092C00104B02221A60104B1B68642202FB03F36B
:10093C00184600F025FDFFF703FC0346012B09D1F7
:10094C00084B0C221A6005E000BF04E000BF02E077
:10095C0000BF00E000BF00BF80BD00BF80000020D2
:10096C00700000208400002094000020A4000020CF
:10097C00980000209C00002080B500AF3E4B012267
:10098C001A603D4B1B683D4A53603D4B1B68053B51
:10099C00032B67D801A252F823F000BFB909000855
:1009AC00D5090008090A00083D0A000800F01EFBE2
:1009BC00334B07221A60334B1B68642202FB03F390
:1009CC00184600F005FD54E000F026FB2E4B1B688A
:1009DC00012B0AD12A4B07221A602A4B1B6864226E
:1009EC0002FB03F3184600F0F3FCFFF7A9FB0346E8
:1009FC00012B39D1224B0C221A6035E000F022FB7E
:100A0C00214B1B68012B0AD11D4B08221A601F4B6E
:100A1C001B68642202FB03F3184600F0D9FCFFF7B5
:100A2C008FFB0346012B21D1154B0C221A601DE0C4
:100A3C0000F01EFB144B1B68012B0AD1104B062235
:100A4C001A60134B1B68642202FB03F3184600F078
:100A5C00BFFCFFF775FB0346012B09D1084B0C2299
:100A6C001A6005E000BF04E000BF02E000BF00E038
:100A7C0000BF00BF80BD00BF8000002070000020C0
:100A8C008800002098000020B40000209C0000206A
:100A9C009400002080B500AF9E4B1B680E2B00F01D
:100AAC0079810E2B00F325820C2B03D00D2B00F03B
:100ABC00AC801EE2984B02221A60974B1B68974A37
:100ACC005360974B1B68092B07DC944B00229A60F0
:100ADC00934B1B68914AD36018E0914B1B68914A69
:100AEC0082FB03129210DB17D31A8C4A93608C4B47
:100AFC0019688C4B83FB01239A10CB17D21A13461F
:100B0C009B0013445B00CA1A844BDA6000F02CFA89
:100B1C0000F082FA844B1B68012B11D120218348F1
:100B2C0001F08FF9824B1B680133824A1268013243
:100B3C0002FB03F3804A92FBF3F3184600F020FC0F
:100B4C007E4B1B68012B11D10221784801F079F9F9
:100B5C00774B1B680133774A1268013202FB03F3AF
:100B6C00754A92FBF3F3184600F032FCFFF7E8FAF3
:100B7C000346012B05D1674B0D221A60704B0E22D8
:100B8C001A60FFF7EFFA0346012B31D1644B1B6857
:100B9C00632B05DC624B1B680133614A136002E076
:100BAC005F4B01221A605E4B1B68092B07DC5B4B09
:100BBC0000229A605A4B1B68584AD36018E0584B75
:100BCC001B68584A82FB03129210DB17D31A534A44
:100BDC009360534B1968534B83FB01239A10CB172B
:100BEC00D21A13469B0013445B00CA1A4B4BDA60B3
:100BFC00FFF7CAFA0346012B40F07D81454B0D22CD
:100C0C001A604F4B0D221A6075E1434B03221A6098
:100C1C00414B1B68414A53604A4B1B68092B07DC4C
:100C2C003E4B00229A60474B1B683C4AD36018E04D
:100C3C00444B1B683B4A82FB03129210DB17D31AFE
:100C4C00364A93603F4B1968364B83FB01239A104D
:100C5C00CB17D21A13469B0013445B00CA1A2F4BB6
:100C6C00DA6000F097F900F0EDF92F4B1B68012BBF
:100C7C0011D180212D4801F0E4F82D4B1B68013374
:100C8C002C4A1268013202FB03F32B4A92FBF3F35A
:100C9C00184600F075FB294B1B68012B11D108215C
:100CAC00224801F0CEF8224B1B680133214A12680E
:100CBC00013202FB03F3204A92FBF3F3184600F0D7
:100CCC0087FBFFF73DFA0346012B05D1114B0E2292
:100CDC001A601B4B0E221A60FFF744FA0346012BD5
:100CEC004BD1184B1B68632B05DC164B1B6801336F
:100CFC00144A136002E0134B01221A60114B1B685B
:100D0C00092B21DC054B00229A600E4B1B68034A11
:100D1C00D36032E0840000208000002070000020AE
:100D2C009400002067666666A4000020000801405D
:100D3C008C0000209000002000093D00B400002031
:100D4C0088000020980000206E4B1B686E4A82FBC6
:100D5C0003129210DB17D31A6C4A9360694B196813
:100D6C00694B83FB01239A10CB17D21A13469B00B5
:100D7C0013445B00CA1A654BDA60FFF705FA0346A9
:100D8C00012B40F0BA80624B0E221A60614B0E228E
:100D9C001A60B2E0604B04221A605F4B1B685B4A1E
:100DAC0053605E4B1B68092B07DC584B00229A6082
:100DBC005A4B1B68554AD36018E0584B1B68524A73
:100DCC0082FB03129210DB17D31A504A9360534BD9
:100DDC0019684D4B83FB01239A10CB17D21A13467B
:100DEC009B0013445B00CA1A484BDA6000F0E8F829
:100DFC0000F03EF94A4B1B68012B11D140214948A8
:100E0C0001F01FF8484B1B680133484A1268013245
:100E1C0002FB03F3464A92FBF3F3184600F0B0FAD8
:100E2C00444B1B68012B11D104213E4801F009F8F9
:100E3C003D4B1B6801333D4A1268013202FB03F340
:100E4C003B4A92FBF3F3184600F0C2FAFFF778F92D
:100E5C000346012B0AD12E4B02221A60364B1B681B
:100E6C00642202FB03F3184600F08AFAFFF77AF9C2
:100E7C000346012B31D1294B1B68632B05DC274B17
:100E8C001B680133254A136002E0244B01221A60CF
:100E9C00224B1B68092B07DC1C4B00229A601F4B52
:100EAC001B681A4AD36018E01C4B1B68164A82FB5D
:100EBC0003129210DB17D31A144A9360174B19685C
:100ECC00114B83FB01239A10CB17D21A13469B00AC
:100EDC0013445B00CA1A0D4BDA60FFF755F9034651
:100EEC00012B0CD10A4B02221A600A4B06221A6003
:100EFC0005E000BF04E000BF02E000BF00E000BF5F
:100F0C0000BF80BD980000206766666670000020F8
:100F1C008400002088000020800000209C0000201D
:100F2C00A4000020000801408C000020900000204C
:100F3C0000093D00B40000209400002080B500AFF3
:100F4C0001222021074800F064FF0122802105487E
:100F5C0000F05FFF01224021024800F05AFF00BF61
:100F6C0080BD00BF0008014080B500AF00222021E9
:100F7C00074800F04EFF01228021054800F049FF90
:100F8C0001224021024800F044FF00BF80BD00BF99
:100F9C000008014080B500AF01222021074800F075
:100FAC0038FF00228021054800F033FF0122402148
:100FBC00024800F02EFF00BF80BD00BF00080140BA
:100FCC0080B500AF01222021074800F022FF01224A
:100FDC008021054800F01DFF00224021024800F04E
:100FEC0018FF00BF80BD00BF0008014080B500AFF6
:100FFC0001220221074800F00CFF012208210548BC
:10100C0000F007FF01220421024800F002FF00BF9C
:10101C0080BD00BF0008014080B500AF0022022156
:10102C00074800F0F6FE01220821054800F0F1FE09
:10103C0001220421024800F0ECFE00BF80BD00BF7D
:10104C000008014080B500AF01220221074800F0E2
:10105C00E0FE00220821054800F0DBFE01220421FD
:10106C00024800F0D6FE00BF80BD00BF0008014062
:10107C0080B500AF01220221074800F0CAFE012210
:10108C000821054800F0C5FE00220421024800F0AA
:10109C00C0FE00BF80BD00BF0008014090B587B006
:1010AC0000AF00F0B5FB00F06BF800F0F1F800F0C9
:1010BC00A3F8284801F00AFB274B01221A60274BA2
:1010CC0001221A60264B05221A60322000F058F9D2
:1010DC00322000F07DF900237B61322000F064F9AE
:1010EC001C4B5B681A461F4B1A601A4BDB681A467E
:1010FC001D4B1A601D4B3C1D0FCB84E80F001C4B85
:10110C0005221A601B4B03221A601B4B02221A6029
:10111C00FFF7A4FBFFF730FCFFF7BCFC0E4B1B6882
:10112C00012B01D100F038FA144B1B68012BEFD1C5
:10113C00322000F039F97869FFF7F2FA7B69032B5A
:10114C00E6DC7B6901337B617B69032BE0DD0023EB
:10115C007B61DDE7B80000208000002084000020C7
:10116C00880000208C00002090000020782E0008C1
:10117C0094000020980000209C000020AC0000206F
:10118C0080B590B000AF07F1180328220021184653
:10119C0001F058FE3B1D00221A605A609A60DA601A
:1011AC001A610223BB610123BB621023FB62002383
:1011BC007B6307F11803184600F05CFE0346002B16
:1011CC0001D000F0D7F80F237B600023BB60002315
:1011DC00FB6000233B6100237B613B1D0021184613
:1011EC0001F0C8F80346002B01D000F0C3F800BF93
:1011FC004037BD4680BD000080B586B000AF07F11A
:10120C00080300221A605A609A60DA603B4600229A
:10121C001A605A601D4B4FF080421A601B4B41F60E
:10122C003F725A60194B00229A60184B0922DA60FF
:10123C00164B00221A61154B00229A61134801F0DB
:10124C00F5F90346002B01D000F094F84FF48053CD
:10125C00BB6007F1080319460C4801F08BFB0346F1
:10126C00002B01D000F086F800233B6000237B604C
:10127C003B461946054801F057FD0346002B01D0AB
:10128C0000F078F800BF1837BD4680BDB8000020CC
:10129C0080B586B000AF07F1080300221A605A60CF
:1012AC009A60DA60284B9B69274A43F004039361E8
:1012BC00254B9B6903F004037B607B68224B9B6985
:1012CC00214A43F0080393611F4B9B6903F0080309
:1012DC003B603B680022EE211C4800F09AFD002286
:1012EC0040F67F711A4800F094FDEE23BB60012399
:1012FC00FB6000233B6102237B6107F10803194665
:10130C00124800F0F5FB40F67F73BB600123FB60D5
:10131C0000233B6102237B6107F1080319460C484B
:10132C0000F0E6FB4FF46053BB600023FB6001232D
:10133C003B6107F108031946044800F0D9FB00BFD4
:10134C001837BD4680BD00BF0010024000080140A8
:10135C00000C014080B582B000AF7860FEF726FF2C
:10136C00FEF77CFFFEF7D2FF00F046F800BF08370F
:10137C00BD4680BD80B400AF72B600BFFEE7000072
:10138C0080B483B000AF7860054A7B681360054B6E
:10139C0000221A6000BF0C37BD4680BC704700BFEE
:1013AC00A0000020A400002080B483B000AF7860BF
:1013BC00054A7B681360054B00221A6000BF0C378E
:1013CC00BD4680BC704700BFA8000020AC000020C8
:1013DC0080B483B000AF7860054A7B681360054B1E
:1013EC0000221A6000BF0C37BD4680BC704700BF9E
:1013FC00B0000020B400002080B400AF194B1B6873
:10140C00002B0BDD174B1B68013B164A1360154B69
:10141C001B68002B02DC144B01221A60134B1B6857
:10142C00002B0BDD114B1B68013B104A13600F4B5B
:10143C001B68002B02DC0E4B01221A600D4B1B6843
:10144C00002B0BDD0B4B1B68013B0A4A1360094B4D
:10145C001B68002B02DC084B01221A6000BFBD4642
:10146C0080BC7047A0000020A4000020A800002031
:10147C00AC000020B0000020B400002080B485B087
:10148C0000AF154B9B69144A43F001039361124B57
:10149C009B6903F00103BB60BB680F4BDB690E4A11
:1014AC0043F08053D3610C4BDB6903F080537B60BA
:1014BC007B680A4B5B68FB60FB6823F0E063FB60B6
:1014CC00FB6843F08063FB60044AFB68536000BF19
:1014DC001437BD4680BC704700100240000001402C
:1014EC0080B584B000AF78607B681B68B3F1804F27
:1014FC0013D10C4BDB690B4A43F00103D361094B4D
:10150C00DB6903F00103FB60FB68002200211C2057
:10151C0000F0B7FA1C2000F0D0FA00BF1037BD461F
:10152C0080BD00BF0010024080B400AFFEE780B465
:10153C0000AFFEE780B400AFFEE780B400AFFEE77B
:10154C0080B400AFFEE780B400AF00BFBD4680BCE6
:10155C00704780B400AF00BFBD4680BC704780B4FC
:10156C0000AF00BFBD4680BC704780B500AF00F037
:10157C0095F900BF80BD000080B500AF024801F0B6
:10158C00F1F800BF80BD00BFB800002080B400AFF0
:10159C0000BFBD4680BC704780B400AF814B1B6858
:1015AC00012B40F0FA80804B1B68042B52D0042B8B
:1015BC0076DC022B02D0032B26D071E07B4B1B6810
:1015CC00092B07DC7A4B00221A60784B1B68784A8F
:1015DC00536065E0754B1B68764A82FB03129210D0
:1015EC00DB17D31A724A1360704B1968714B83FB6B
:1015FC0001239A10CB17D21A13469B0013445B009D
:10160C00CA1A6B4B5A604BE06B4B1B68092B07DCFF
:10161C00674B00221A60684B1B68654A53603FE0B9
:10162C00654B1B68634A82FB03129210DB17D31ABB
:10163C005F4A1360604B19685E4B83FB01239A1061
:10164C00CB17D21A13469B0013445B00CA1A584B93
:10165C005A6025E0594B1B68092B07DC544B0022C0
:10166C001A60564B1B68524A536018E0534B1B6868
:10167C00504A82FB03129210DB17D31A4C4A1360A8
:10168C004E4B19684B4B83FB01239A10CB17D21A84
:10169C0013469B0013445B00CA1A454B5A6000BFAB
:1016AC00474B1B68062B06D0062B77DC032B28D068
:1016BC00042B4CD072E03D4B1B68092B07DC3C4BD8
:1016CC0000229A60394B1B68394AD36066E0374B6D
:1016DC001B68384A82FB03129210DB17D31A344A68
:1016EC009360324B1968334B83FB01239A10CB1751
:1016FC00D21A13469B0013445B00CA1A2C4BDA60B7
:10170C004CE02D4B1B68092B07DC294B00229A60FF
:10171C00294B1B68264AD36040E0274B1B68254A9F
:10172C0082FB03129210DB17D31A214A9360224BCF
:10173C001968204B83FB01239A10CB17D21A13463E
:10174C009B0013445B00CA1A194BDA6026E01B4B52
:10175C001B68092B07DC164B00229A60174B1B6881
:10176C00134AD3601AE0154B1B68124A82FB031212
:10177C009210DB17D31A0E4A9360104B19680D4B5D
:10178C0083FB01239A10CB17D21A13469B001344E8
:10179C005B00CA1A064BDA6000E000BF00BFBD4612
:1017AC0080BC7047A400002084000020940000201E
:1017BC007000002067666666980000209C00002080
:1017CC0088000020FFF7E2FE0B480C490C4A00236E
:1017DC0002E0D458C4500433C4188C42F9D3094ADB
:1017EC00094C002301E013600432A242FBD301F048
:1017FC0005FBFFF753FC7047000000204800002059
:10180C00B42E00084800002004010020FEE7000070
:10181C0080B500AF084B1B68074A43F010031360F8
:10182C00032000F023F90F2000F008F8FFF726FE44
:10183C000023184680BD00BF0020024080B582B056
:10184C0000AF7860124B1A68124B1B7819464FF494
:10185C007A73B3FBF1F3B2FBF3F3184600F03BF9E8
:10186C000346002B01D001230EE07B680F2B0AD816
:10187C00002279684FF0FF3000F003F9064A7B68CC
:10188C001360002300E0012318460837BD4680BDD5
:10189C003C000020440000204000002080B400AF39
:1018AC00054B1B781A46054B1B681344034A1360FF
:1018BC0000BFBD4680BC70474400002000010020E2
:1018CC0080B400AF024B1B681846BD4680BC704705
:1018DC000001002080B485B000AF78607B6803F015
:1018EC000703FB600C4BDB68BB60BA684FF6FF0369
:1018FC001340BB60FB681A02BB68134343F0BF6321
:10190C0043F40033BB60044ABB68D36000BF143798
:10191C00BD4680BC704700BF00ED00E080B400AF56
:10192C00044BDB681B0A03F007031846BD4680BC5A
:10193C00704700BF00ED00E080B483B000AF0346F9
:10194C00FB7197F90730002B0BDBFB7903F01F02BF
:10195C00064997F907305B09012000FA02F241F8B9
:10196C00232000BF0C37BD4680BC704700E100E06F
:10197C0080B483B000AF03463960FB7197F9073030
:10198C00002B0ADB3B68DAB20C4997F907301201DD
:10199C00D2B20B4483F800230AE03B68DAB2084960
:1019AC00FB7903F00F03043B1201D2B20B441A76FD
:1019BC0000BF0C37BD4680BC704700BF00E100E0A3
:1019CC0000ED00E080B489B000AFF860B9607A60D7
:1019DC00FB6803F00703FB61FB69C3F10703042BEE
:1019EC0028BF0423BB61FB690433062B02D9FB69B6
:1019FC00033B00E000237B614FF0FF32BB6902FA2E
:101A0C0003F3DA43BB681A407B699A404FF0FF310D
:101A1C007B6901FA03F3D9437B680B4013431846E7
:101A2C002437BD4680BC704780B582B000AF78606B
:101A3C007B68013BB3F1807F01D301230FE00A4A9D
:101A4C007B68013B53600F214FF0FF30FFF790FF95
:101A5C00054B00229A60044B07221A60002318469B
:101A6C000837BD4680BD00BF10E000E080B582B0F5
:101A7C0000AF78607868FFF72DFF00BF0837BD46D0
:101A8C0080BD80B586B000AF0346B9607A60FB7349
:101A9C0000237B61FFF742FF78617A68B968786947
:101AAC00FFF790FF024697F90F3011461846FFF7E3
:101ABC005FFF00BF1837BD4680BD80B582B000AF58
:101ACC000346FB7197F907301846FFF735FF00BF47
:101ADC000837BD4680BD80B582B000AF78607868AD
:101AEC00FFF7A2FF034618460837BD4680BD00002D
:101AFC0080B48BB000AF7860396000237B62002328
:101B0C003B6248E101227B6A02FA03F3FB613B680A
:101B1C001B68FA691340BB61BA69FB699A4240F0D1
:101B2C0037813B685B68A34A93425ED0A14A9342DB
:101B3C0075D8A14A934258D09F4A93426FD89F4A76
:101B4C00934252D09D4A934269D89D4A93424CD0BD
:101B5C009B4A934263D89B4A934246D0994A9342FC
:101B6C005DD8122B2AD8122B59D801A252F823F087
:101B7C00F71B0008D11B0008E31B0008251C0008FC
:101B8C002B1C00082B1C00082B1C00082B1C00080D
:101B9C002B1C00082B1C00082B1C00082B1C0008FD
:101BAC002B1C00082B1C00082B1C00082B1C0008ED
:101BBC002B1C0008D91B0008ED1B0008824A93421D
:101BCC0013D02CE03B68DB683B6229E03B68DB68A8
:101BDC0004333B6224E03B68DB6808333B621FE064
:101BEC003B68DB680C333B621AE03B689B68002B5C
:101BFC0002D104233B6213E03B689B68012B05D1A7
:101C0C0008233B627B68FA691A6109E008233B628E
:101C1C007B68FA695A6103E000233B6200E000BF75
:101C2C00BB69FF2B01D87B6801E07B6804337B61C7
:101C3C00BB69FF2B02D87B6A9B0002E07B6A083BE6
:101C4C009B003B617B691A680F213B6901FA03F326
:101C5C00DB431A40396A3B6901FA03F31A437B6987
:101C6C001A603B685B6803F08053002B00F0908097
:101C7C00564B9B69554A43F001039361534B9B6947
:101C8C0003F00103BB60BB68514A7B6A9B080233BB
:101C9C0052F82330FB607B6A03F003039B000F2296
:101CAC0002FA03F3DB43FA681340FB607B68494A92
:101CBC0093420DD07B68484A934207D07B68474AD1
:101CCC00934201D1022304E0032302E0012300E04C
:101CDC0000237A6A02F0030292009340FA681343DD
:101CEC00FB603B497B6A9B080233FA6841F823206E
:101CFC003B685B6803F48013002B06D0384B9A6862
:101D0C003749BB6913438B6006E0354B9A68BB6956
:101D1C00DB43334913408B603B685B6803F400136F
:101D2C00002B06D02E4BDA682D49BB691343CB60D0
:101D3C0006E02B4BDA68BB69DB4329491340CB60C7
:101D4C003B685B6803F40033002B06D0244B5A68C5
:101D5C002349BB6913434B6006E0214B5A68BB69AE
:101D6C00DB431F4913404B603B685B6803F48033D3
:101D7C00002B06D01A4B1A681949BB6913430B6028
:101D8C0006E0174B1A68BB69DB43154913400B601F
:101D9C007B6A01337B623B681A687B6A22FA03F325
:101DAC00002B7FF4AFAE00BF00BF2C37BD4680BC0C
:101DBC00704700BF000032100000311000002210EC
:101DCC000000211000001210000011100010024041
:101DDC000000014000080140000C014000100140CF
:101DEC000004014080B485B000AF78600B467B8066
:101DFC007B689A687B881340002B02D00123FB730D
:101E0C0001E00023FB73FB7B18461437BD4680BCF6
:101E1C00704780B483B000AF78600B467B8013466C
:101E2C007B707B78002B03D07A887B681A6103E087
:101E3C007B881A047B681A6100BF0C37BD4680BCD6
:101E4C00704780B485B000AF78600B467B807B68B0
:101E5C00DB68FB607A88FB6813401A04FB68D94383
:101E6C007B880B401A437B681A6100BF1437BD4650
:101E7C0080BC704780B586B000AF78607B68002B63
:101E8C0001D101236CE27B681B6803F00103002B7A
:101E9C0000F08780924B5B6803F00C03042B0CD092
:101EAC008F4B5B6803F00C03082B12D18C4B5B68D7
:101EBC0003F48033B3F5803F0BD1894B1B6803F4DB
:101ECC000033002B6CD07B685B68002B68D101233E
:101EDC0046E27B685B68B3F5803F06D1804B1B689C
:101EEC007F4A43F4803313602EE07B685B68002BE1
:101EFC000CD17B4B1B687A4A23F480331360784BEC
:101F0C001B68774A23F4802313601DE07B685B68B1
:101F1C00B3F5A02F0CD1724B1B68714A43F480238C
:101F2C0013606F4B1B686E4A43F4803313600BE0F5
:101F3C006B4B1B686A4A23F480331360684B1B6835
:101F4C00674A23F4802313607B685B68002B13D0F3
:101F5C00FFF7B6FC386108E0FFF7B2FC02463B69BC
:101F6C00D31A642B01D90323FAE15D4B1B6803F4EC
:101F7C000033002BF0D014E0FFF7A2FC386108E02E
:101F8C00FFF79EFC02463B69D31A642B01D903234D
:101F9C00E6E1534B1B6803F40033002BF0D100E057
:101FAC0000BF7B681B6803F00203002B63D04C4B13
:101FBC005B6803F00C03002B0BD0494B5B6803F000
:101FCC000C03082B1CD1464B5B6803F48033002BAD
:101FDC0016D1434B1B6803F00203002B05D07B6822
:101FEC001B69012B01D00123BAE13D4B1B6823F087
:101FFC00F8027B685B69DB00394913430B603AE0FC
:10200C007B681B69002B20D0364B01221A60FFF72E
:10201C0057FC386108E0FFF753FC02463B69D31AC2
:10202C00022B01D903239BE12D4B1B6803F0020308
:10203C00002BF0D02A4B1B6823F0F8027B685B69FD
:10204C00DB00274913430B6015E0264B00221A6076
:10205C00FFF736FC386108E0FFF732FC02463B69BB
:10206C00D31A022B01D903237AE11D4B1B6803F011
:10207C000203002BF0D17B681B6803F00803002BD4
:10208C003AD07B689B69002B19D0174B01221A6040
:10209C00FFF716FC386108E0FFF712FC02463B69BB
:1020AC00D31A022B01D903235AE10D4B5B6A03F0BF
:1020BC000203002BF0D0012000F09AFA1CE00A4B2E
:1020CC0000221A60FFF7FCFB38610FE0FFF7F8FB0A
:1020DC0002463B69D31A022B08D9032340E100BF07
:1020EC000010024000004242800442429E4B5B6A58
:1020FC0003F00203002BE9D17B681B6803F0040397
:10210C00002B00F0A6800023FB75974BDB6903F0D6
:10211C008053002B0DD1944BDB69934A43F08053D1
:10212C00D361914BDB6903F08053BB60BB68012327
:10213C00FB758E4B1B6803F48073002B18D18B4BF3
:10214C001B688A4A43F480731360FFF7B9FB38614C
:10215C0008E0FFF7B5FB02463B69D31A642B01D9A3
:10216C000323FDE0814B1B6803F48073002BF0D03C
:10217C007B68DB68012B06D17B4B1B6A7A4A43F0E8
:10218C00010313622DE07B68DB68002B0CD1764BCE
:10219C001B6A754A23F001031362734B1B6A724A64
:1021AC0023F0040313621CE07B68DB68052B0CD165
:1021BC006D4B1B6A6C4A43F0040313626A4B1B6A37
:1021CC00694A43F0010313620BE0674B1B6A664AD2
:1021DC0023F001031362644B1B6A634A23F004036C
:1021EC0013627B68DB68002B15D0FFF769FB386145
:1021FC000AE0FFF765FB02463B69D31A41F28832CD
:10220C00934201D90323ABE0574B1B6A03F0020343
:10221C00002BEED014E0FFF753FB38610AE0FFF718
:10222C004FFB02463B69D31A41F28832934201D9E3
:10223C00032395E04C4B1B6A03F00203002BEED1F9
:10224C00FB7D012B05D1484BDB69474A23F08053BA
:10225C00D3617B68DB69002B00F08180424B5B68AB
:10226C0003F00C03082B61D07B68DB69022B46D191
:10227C003F4B00221A60FFF723FB386108E0FFF7A1
:10228C001FFB02463B69D31A022B01D9032367E0DB
:10229C00354B1B6803F00073002BF0D17B681B6A75
:1022AC00B3F5803F08D1304B5B6823F400327B6878
:1022BC009B682D4913434B602B4B5B6823F47412C2
:1022CC007B68196A7B685B6A0B43274913434B6035
:1022DC00274B01221A60FFF7F3FA386108E0FFF789
:1022EC00EFFA02463B69D31A022B01D9032337E0DC
:1022FC001D4B1B6803F00073002BF0D02FE01C4B20
:10230C0000221A60FFF7DCFA386108E0FFF7D8FA10
:10231C0002463B69D31A022B01D9032320E0124B4E
:10232C001B6803F00073002BF0D118E07B68DB69AD
:10233C00012B01D1012313E00B4B5B68FB60FB68A5
:10234C0003F480327B681B6A9A4206D1FB6803F463
:10235C0070127B685B6A9A4201D0012300E0002373
:10236C0018461837BD4680BD001002400070004072
:10237C006000424280B584B000AF786039607B6801
:10238C00002B01D10123D0E06A4B1B6803F007033B
:10239C003A689A4210D9674B1B6823F007026549CB
:1023AC003B6813430B60634B1B6803F007033A68ED
:1023BC009A4201D00123B8E07B681B6803F002034A
:1023CC00002B20D07B681B6803F00403002B05D086
:1023DC00594B5B68584A43F4E06353607B681B6855
:1023EC0003F00803002B05D0534B5B68524A43F4AF
:1023FC0060535360504B5B6823F0F0027B689B6822
:10240C004D4913434B607B681B6803F00103002BA1
:10241C0040D07B685B68012B07D1474B1B6803F4EA
:10242C000033002B15D101237FE07B685B68022B06
:10243C0007D1414B1B6803F00073002B09D101231A
:10244C0073E03D4B1B6803F00203002B01D1012309
:10245C006BE0394B5B6823F003027B685B683649A1
:10246C0013434B60FFF72CFAF8600AE0FFF728FAE9
:10247C000246FB68D31A41F28832934201D90323F6
:10248C0053E02D4B5B6803F00C027B685B689B0090
:10249C009A42EBD1274B1B6803F007033A689A4228
:1024AC0010D2244B1B6823F0070222493B681343CC
:1024BC000B60204B1B6803F007033A689A4201D06B
:1024CC00012332E07B681B6803F00403002B08D067
:1024DC00194B5B6823F4E0627B68DB681649134395
:1024EC004B607B681B6803F00803002B09D0124B70
:1024FC005B6823F460527B681B69DB000E49134355
:10250C004B6000F021F802460B4B5B681B0903F093
:10251C000F030A49CB5C22FA03F3094A1360094BF7
:10252C001B681846FFF78AF9002318461037BD467A
:10253C0080BD00BF0020024000100240882E000821
:10254C003C0000204000002080B487B000AF002386
:10255C00FB600023BB6000237B6100237B600023B6
:10256C003B611E4B5B68FB60FB6803F00C03042BA8
:10257C0002D0082B03D027E0194B3B6127E0FB6806
:10258C009B0C03F00F03174AD35C7B60FB6803F4CE
:10259C008033002B10D0114B5B685B0C03F00103F4
:1025AC00114AD35CBB607B680D4A02FB03F2BB682B
:1025BC00B2FBF3F37B6104E07B680C4A02FB03F390
:1025CC007B617B693B6102E0054B3B6100BF3B6972
:1025DC0018461C37BD4680BC704700BF0010024037
:1025EC0000127A00982E0008A82E000800093D0061
:1025FC0080B485B000AF78600A4B1B680A4AA2FB16
:10260C0003235B0A7A6802FB03F3FB6000BFFB68E1
:10261C005A1EFA60002BF9D100BF00BF1437BD461B
:10262C0080BC70473C000020D34D621080B582B056
:10263C0000AF78607B68002B01D1012341E07B68FF
:10264C0093F83D30DBB2002B06D17B68002283F877
:10265C003C207868FEF744FF7B68022283F83D201B
:10266C007B681A687B6804331946104600F06EFAD2
:10267C007B68012283F846207B68012283F83E2088
:10268C007B68012283F83F207B68012283F840207D
:10269C007B68012283F841207B68012283F8422069
:1026AC007B68012283F843207B68012283F8442055
:1026BC007B68012283F845207B68012283F83D204A
:1026CC00002318460837BD4680BD000080B485B095
:1026DC0000AF78607B6893F83D30DBB2012B01D002
:1026EC00012335E07B68022283F83D207B681B6860
:1026FC00DA687B681B6842F00102DA607B681B6851
:10270C00164A934209D07B681B68B3F1804F04D002
:10271C007B681B68124A934211D17B681B689B68CB
:10272C0003F00703FB60FB68062B10D07B681B686B
:10273C001A687B681B6842F001021A6007E07B682C
:10274C001B681A687B681B6842F001021A60002340
:10275C0018461437BD4680BC704700BF002C0140A2
:10276C000004004080B582B000AF78607B681B68C5
:10277C001B6903F00203022B22D17B681B68DB6808
:10278C0003F00203022B1BD17B681B686FF0020263
:10279C001A617B6801221A777B681B689B6903F0BE
:1027AC000303002B03D0786800F0B4F905E07868D7
:1027BC0000F0A7F9786800F0B6F97B6800221A7768
:1027CC007B681B681B6903F00403042B22D17B6814
:1027DC001B68DB6803F00403042B1BD17B681B68AC
:1027EC006FF004021A617B6802221A777B681B68FF
:1027FC009B6903F44073002B03D0786800F08AF9CE
:10280C0005E0786800F07DF9786800F08CF97B6859
:10281C0000221A777B681B681B6903F00803082BDE
:10282C0022D17B681B68DB6803F00803082B1BD1E3
:10283C007B681B686FF008021A617B6804221A77A8
:10284C007B681B68DB6903F00303002B03D07868FB
:10285C0000F060F905E0786800F053F9786800F052
:10286C0062F97B6800221A777B681B681B6903F08E
:10287C001003102B22D17B681B68DB6803F010035C
:10288C00102B1BD17B681B686FF010021A617B68E0
:10289C0008221A777B681B68DB6903F44073002BF2
:1028AC0003D0786800F036F905E0786800F029F973
:1028BC00786800F038F97B6800221A777B681B680F
:1028CC001B6903F00103012B0ED17B681B68DB68CD
:1028DC0003F00103012B07D17B681B686FF0010229
:1028EC001A617868FEF736FD7B681B681B6903F07C
:1028FC008003802B0ED17B681B68DB6803F08003A0
:10290C00802B07D17B681B686FF080021A61786896
:10291C0000F06BFA7B681B681B6903F04003402BCB
:10292C000ED17B681B68DB6803F04003402B07D19A
:10293C007B681B686FF040021A61786800F0FCF845
:10294C007B681B681B6903F02003202B0ED17B686E
:10295C001B68DB6803F02003202B07D17B681B6806
:10296C006FF020021A61786800F036FA00BF083761
:10297C00BD4680BD80B584B000AF7860396000235F
:10298C00FB737B6893F83C30012B01D10223B4E03C
:10299C007B68012283F83C207B68022283F83D206F
:1029AC007B681B689B68BB60BB6823F07703BB60CC
:1029BC00BB6823F47F43BB607B681B68BA689A6072
:1029CC003B681B68B3F5005F3ED0B3F5005F00F2C7
:1029DC008780B3F5805F00F08680B3F5805F7FD889
:1029EC00702B1AD0702B7BD8602B50D0602B77D8E3
:1029FC00502B3CD0502B73D8402B58D0402B6FD839
:102A0C00302B64D0302B6BD8202B60D0202B67D888
:102A1C00002B5CD0102B5AD062E07B6818683B68A6
:102A2C0099683B685A683B68DB6800F05EF97B6824
:102A3C001B689B68BB60BB6843F07703BB607B681B
:102A4C001B68BA689A604FE07B6818683B689968A5
:102A5C003B685A683B68DB6800F047F97B681B6889
:102A6C009A687B681B6842F480429A603CE07B6801
:102A7C0018683B6859683B68DB681A4600F0BEF87A
:102A8C007B681B685021184600F015F92CE07B6818
:102A9C0018683B6859683B68DB681A4600F0DCF83C
:102AAC007B681B686021184600F005F91CE07B6808
:102ABC0018683B6859683B68DB681A4600F09EF85A
:102ACC007B681B684021184600F0F5F80CE07B6829
:102ADC001A683B681B681946104600F0ECF803E0D6
:102AEC000123FB7300E000BF7B68012283F83D20CB
:102AFC007B68002283F83C20FB7B18461037BD46D0
:102B0C0080BD80B483B000AF786000BF0C37BD4689
:102B1C0080BC704780B483B000AF786000BF0C37C6
:102B2C00BD4680BC704780B483B000AF786000BFF6
:102B3C000C37BD4680BC704780B483B000AF786062
:102B4C0000BF0C37BD4680BC7047000080B485B018
:102B5C0000AF786039607B681B68FB607B68254A36
:102B6C00934207D07B68B3F1804F03D07B68224A35
:102B7C00934208D1FB6823F07003FB603B685B68F1
:102B8C00FA681343FB607B681A4A934207D07B6850
:102B9C00B3F1804F03D07B68174A934208D1FB688E
:102BAC0023F44073FB603B68DB68FA681343FB60FB
:102BBC00FB6823F080023B685B691343FB607B6816
:102BCC00FA681A603B689A687B68DA623B681A6834
:102BDC007B689A627B68074A934203D13B681A6907
:102BEC007B681A637B6801225A6100BF1437BD46AB
:102BFC0080BC7047002C01400004004080B487B0BA
:102C0C0000AFF860B9607A60FB681B6A7B61FB6897
:102C1C001B6A23F00102FB681A62FB689B693B612B
:102C2C003B6923F0F0033B617B681B013A6913435A
:102C3C003B617B6923F00A037B617A69BB681343B0
:102C4C007B61FB683A699A61FB687A691A6200BF1A
:102C5C001C37BD4680BC704780B487B000AFF860AD
:102C6C00B9607A60FB681B6A7B61FB681B6A23F0A6
:102C7C001002FB681A62FB689B693B613B6923F499
:102C8C0070433B617B681B033A6913433B617B696F
:102C9C0023F0A0037B61BB681B017A6913437B6142
:102CAC00FB683A699A61FB687A691A6200BF1C3743
:102CBC00BD4680BC704780B485B000AF7860396089
:102CCC007B689B68FB60FB6823F07003FB603A68D1
:102CDC00FB68134343F00703FB607B68FA689A6058
:102CEC0000BF1437BD4680BC704780B487B000AFBE
:102CFC00F860B9607A603B60FB689B687B617B69BC
:102D0C0023F47F437B613B681A027B681A43BB68E0
:102D1C0013437A6913437B61FB687A699A6000BF3D
:102D2C001C37BD4680BC704780B485B000AF78605E
:102D3C0039607B6893F83C30012B01D1022341E0D0
:102D4C007B68012283F83C207B68022283F83D20BB
:102D5C007B681B685B68FB607B681B689B68BB605F
:102D6C00FB6823F07003FB603B681B68FA68134335
:102D7C00FB607B681B68FA685A607B681B68144AA6
:102D8C00934209D07B681B68B3F1804F04D07B68F9
:102D9C001B68104A93420CD1BB6823F08003BB60C4
:102DAC003B685B68BA681343BB607B681B68BA6896
:102DBC009A607B68012283F83D207B68002283F8AF
:102DCC003C20002318461437BD4680BC704700BF1A
:102DDC00002C01400004004080B483B000AF786048
:102DEC0000BF0C37BD4680BC704780B483B000AFC9
:102DFC00786000BF0C37BD4680BC704770B50026AC
:102E0C000C4D0D4C641BA410A64209D100F022F805
:102E1C0000260A4D0A4C641BA410A64205D170BDB5
:102E2C0055F8043B98470136EEE755F8043B9847B4
:102E3C000136F2E7AC2E0008AC2E0008AC2E0008D0
:102E4C00B02E000803460244934200D1704703F8A9
:102E5C00011BF9E7F8B500BFF8BC08BC9E467047EB
:0C2E6C00F8B500BFF8BC08BC9E467047DB
:102E78000000000001000000000000000300000046
:102E88000000000000000000010203040607080912
:102E980002030405060708090A0B0C0D0E0F101093
:042EA8000102000023
:042EAC0031010008E8
:042EB0000D01000808
:102EB400010000000100000001000000010000000A
:102EC40001000000010000000100000001000000FA
:102ED40001000000010000000100000001000000EA
:102EE4006400000064000000640000000024F4009A
:082EF4001000000001000000C5
:04000005080017D107
:00000001FF
